{"abi":[{"type":"constructor","inputs":[{"name":"_oracle","type":"address","internalType":"address"}],"stateMutability":"nonpayable"},{"type":"function","name":"claimWinnings","inputs":[{"name":"marketId","type":"uint256","internalType":"uint256"}],"outputs":[],"stateMutability":"nonpayable"},{"type":"function","name":"createMarket","inputs":[{"name":"question","type":"string","internalType":"string"},{"name":"expiration","type":"uint256","internalType":"uint256"},{"name":"rewardToken","type":"address","internalType":"address"}],"outputs":[{"name":"","type":"uint256","internalType":"uint256"}],"stateMutability":"nonpayable"},{"type":"function","name":"hasClaimed","inputs":[{"name":"","type":"uint256","internalType":"uint256"},{"name":"","type":"address","internalType":"address"}],"outputs":[{"name":"","type":"bool","internalType":"bool"}],"stateMutability":"view"},{"type":"function","name":"markets","inputs":[{"name":"","type":"uint256","internalType":"uint256"}],"outputs":[{"name":"question","type":"string","internalType":"string"},{"name":"assertionId","type":"bytes32","internalType":"bytes32"},{"name":"resolved","type":"bool","internalType":"bool"},{"name":"outcome","type":"bool","internalType":"bool"},{"name":"yesPool","type":"uint256","internalType":"uint256"},{"name":"noPool","type":"uint256","internalType":"uint256"},{"name":"totalPool","type":"uint256","internalType":"uint256"},{"name":"expiration","type":"uint256","internalType":"uint256"},{"name":"rewardToken","type":"address","internalType":"address"}],"stateMutability":"view"},{"type":"function","name":"nextMarketId","inputs":[],"outputs":[{"name":"","type":"uint256","internalType":"uint256"}],"stateMutability":"view"},{"type":"function","name":"oracle","inputs":[],"outputs":[{"name":"","type":"address","internalType":"contract OptimisticOracleV3Interface"}],"stateMutability":"view"},{"type":"function","name":"owner","inputs":[],"outputs":[{"name":"","type":"address","internalType":"address"}],"stateMutability":"view"},{"type":"function","name":"placeBet","inputs":[{"name":"marketId","type":"uint256","internalType":"uint256"},{"name":"prediction","type":"bool","internalType":"bool"},{"name":"amount","type":"uint256","internalType":"uint256"}],"outputs":[],"stateMutability":"nonpayable"},{"type":"function","name":"priceSettled","inputs":[{"name":"marketId","type":"uint256","internalType":"uint256"},{"name":"identifier","type":"bytes32","internalType":"bytes32"},{"name":"timestamp","type":"uint256","internalType":"uint256"},{"name":"ancillaryData","type":"bytes","internalType":"bytes"},{"name":"price","type":"int256","internalType":"int256"}],"outputs":[],"stateMutability":"nonpayable"},{"type":"function","name":"renounceOwnership","inputs":[],"outputs":[],"stateMutability":"nonpayable"},{"type":"function","name":"requestResolution","inputs":[{"name":"marketId","type":"uint256","internalType":"uint256"}],"outputs":[],"stateMutability":"nonpayable"},{"type":"function","name":"resolveMarket","inputs":[{"name":"marketId","type":"uint256","internalType":"uint256"},{"name":"outcome","type":"bool","internalType":"bool"}],"outputs":[],"stateMutability":"nonpayable"},{"type":"function","name":"transferOwnership","inputs":[{"name":"newOwner","type":"address","internalType":"address"}],"outputs":[],"stateMutability":"nonpayable"},{"type":"function","name":"userBets","inputs":[{"name":"","type":"uint256","internalType":"uint256"},{"name":"","type":"address","internalType":"address"},{"name":"","type":"bool","internalType":"bool"}],"outputs":[{"name":"","type":"uint256","internalType":"uint256"}],"stateMutability":"view"},{"type":"event","name":"BetPlaced","inputs":[{"name":"marketId","type":"uint256","indexed":true,"internalType":"uint256"},{"name":"user","type":"address","indexed":true,"internalType":"address"},{"name":"prediction","type":"bool","indexed":false,"internalType":"bool"},{"name":"amount","type":"uint256","indexed":false,"internalType":"uint256"}],"anonymous":false},{"type":"event","name":"MarketCreated","inputs":[{"name":"marketId","type":"uint256","indexed":true,"internalType":"uint256"},{"name":"question","type":"string","indexed":false,"internalType":"string"},{"name":"expiration","type":"uint256","indexed":false,"internalType":"uint256"}],"anonymous":false},{"type":"event","name":"MarketResolved","inputs":[{"name":"marketId","type":"uint256","indexed":true,"internalType":"uint256"},{"name":"outcome","type":"bool","indexed":false,"internalType":"bool"}],"anonymous":false},{"type":"event","name":"OwnershipTransferred","inputs":[{"name":"previousOwner","type":"address","indexed":true,"internalType":"address"},{"name":"newOwner","type":"address","indexed":true,"internalType":"address"}],"anonymous":false},{"type":"event","name":"WinningsClaimed","inputs":[{"name":"marketId","type":"uint256","indexed":true,"internalType":"uint256"},{"name":"user","type":"address","indexed":true,"internalType":"address"},{"name":"amount","type":"uint256","indexed":false,"internalType":"uint256"}],"anonymous":false},{"type":"error","name":"OwnableInvalidOwner","inputs":[{"name":"owner","type":"address","internalType":"address"}]},{"type":"error","name":"OwnableUnauthorizedAccount","inputs":[{"name":"account","type":"address","internalType":"address"}]},{"type":"error","name":"ReentrancyGuardReentrantCall","inputs":[]}],"bytecode":{"object":"0x608060405234801562000010575f80fd5b506040516200232738038062002327833981810160405281019062000036919062000283565b335f73ffffffffffffffffffffffffffffffffffffffff168173ffffffffffffffffffffffffffffffffffffffff1603620000aa575f6040517f1e4fbdf7000000000000000000000000000000000000000000000000000000008152600401620000a19190620002c4565b60405180910390fd5b620000bb816200012b60201b60201c565b506001620000de620000d2620001ec60201b60201c565b6200021560201b60201c565b5f01819055508060055f6101000a81548173ffffffffffffffffffffffffffffffffffffffff021916908373ffffffffffffffffffffffffffffffffffffffff16021790555050620002df565b5f805f9054906101000a900473ffffffffffffffffffffffffffffffffffffffff169050815f806101000a81548173ffffffffffffffffffffffffffffffffffffffff021916908373ffffffffffffffffffffffffffffffffffffffff1602179055508173ffffffffffffffffffffffffffffffffffffffff168173ffffffffffffffffffffffffffffffffffffffff167f8be0079c531659141344cd1fd0a4f28419497f9722a3daafe3b4186f6b6457e060405160405180910390a35050565b5f7f9b779b17422d0df92223018b32b4d1fa46e071723d6817e2486d003becc55f005f1b905090565b5f819050919050565b5f80fd5b5f73ffffffffffffffffffffffffffffffffffffffff82169050919050565b5f6200024d8262000222565b9050919050565b6200025f8162000241565b81146200026a575f80fd5b50565b5f815190506200027d8162000254565b92915050565b5f602082840312156200029b576200029a6200021e565b5b5f620002aa848285016200026d565b91505092915050565b620002be8162000241565b82525050565b5f602082019050620002d95f830184620002b3565b92915050565b61203a80620002ed5f395ff3fe608060405234801561000f575f80fd5b50600436106100e8575f3560e01c8063715018a61161008a5780638da5cb5b116100645780638da5cb5b14610232578063b1283e7714610250578063be5192f514610288578063f2fde38b146102a4576100e8565b8063715018a6146101da5780637dc0d1d0146101e4578063873f6f9e14610202576100e8565b8063576cf9d0116100c6578063576cf9d01461014257806357bde44614610172578063677bd9ff1461018e5780636d19ee7b146101aa576100e8565b80631a38cac6146100ec578063406ef2ef14610108578063416a4f1914610126575b5f80fd5b610106600480360381019061010191906110cb565b6102c0565b005b610110610584565b60405161011d919061112a565b60405180910390f35b610140600480360381019061013b9190611143565b61058a565b005b61015c60048036038101906101579190611229565b61058d565b604051610169919061112a565b60405180910390f35b61018c6004803603810190610187919061129a565b6107b8565b005b6101a860048036038101906101a39190611143565b61089a565b005b6101c460048036038101906101bf91906112d8565b610bf1565b6040516101d1919061112a565b60405180910390f35b6101e2610c1c565b005b6101ec610c2f565b6040516101f99190611383565b60405180910390f35b61021c6004803603810190610217919061139c565b610c54565b60405161022991906113e9565b60405180910390f35b61023a610c7e565b6040516102479190611411565b60405180910390f35b61026a60048036038101906102659190611143565b610ca5565b60405161027f999897969594939291906114cc565b60405180910390f35b6102a2600480360381019061029d91906116e3565b610dad565b005b6102be60048036038101906102b99190611776565b610db4565b005b6102c8610e38565b5f60025f8581526020019081526020015f20905080600601544210610322576040517f08c379a0000000000000000000000000000000000000000000000000000000008152600401610319906117eb565b60405180910390fd5b806002015f9054906101000a900460ff1615610373576040517f08c379a000000000000000000000000000000000000000000000000000000000815260040161036a90611853565b60405180910390fd5b5f82116103b5576040517f08c379a00000000000000000000000000000000000000000000000000000000081526004016103ac906118bb565b60405180910390fd5b806007015f9054906101000a900473ffffffffffffffffffffffffffffffffffffffff1673ffffffffffffffffffffffffffffffffffffffff166323b872dd3330856040518463ffffffff1660e01b8152600401610415939291906118d9565b6020604051808303815f875af1158015610431573d5f803e3d5ffd5b505050506040513d601f19601f820116820180604052508101906104559190611922565b50821561047b5781816003015f82825461046f919061197a565b92505081905550610496565b81816004015f82825461048e919061197a565b925050819055505b81816005015f8282546104a9919061197a565b925050819055508160035f8681526020019081526020015f205f3373ffffffffffffffffffffffffffffffffffffffff1673ffffffffffffffffffffffffffffffffffffffff1681526020019081526020015f205f851515151581526020019081526020015f205f82825461051e919061197a565b925050819055503373ffffffffffffffffffffffffffffffffffffffff16847f4af71b021e799c62c158bd54636ca8da2fa26115a21a2dc6efe486ec104fd15f858560405161056e9291906119ad565b60405180910390a35061057f610e5a565b505050565b60015481565b50565b5f610596610e74565b4283116105d8576040517f08c379a00000000000000000000000000000000000000000000000000000000081526004016105cf90611a1e565b60405180910390fd5b5f60015f8154809291906105eb90611a3c565b91905055905060405180610120016040528087878080601f0160208091040260200160405190810160405280939291908181526020018383808284375f81840152601f19601f8201169050808301925050505050505081526020015f801b81526020015f151581526020015f151581526020015f81526020015f81526020015f81526020018581526020018473ffffffffffffffffffffffffffffffffffffffff1681525060025f8381526020019081526020015f205f820151815f0190816106b49190611c74565b50602082015181600101556040820151816002015f6101000a81548160ff02191690831515021790555060608201518160020160016101000a81548160ff0219169083151502179055506080820151816003015560a0820151816004015560c0820151816005015560e08201518160060155610100820151816007015f6101000a81548173ffffffffffffffffffffffffffffffffffffffff021916908373ffffffffffffffffffffffffffffffffffffffff160217905550905050807f2d1e9ad45dbe8e898e0374deebf2a661b2ae7c1855d2a29507d584c35d287c758787876040516107a493929190611d6f565b60405180910390a280915050949350505050565b6107c0610e74565b5f60025f8481526020019081526020015f209050806002015f9054906101000a900460ff1615610825576040517f08c379a000000000000000000000000000000000000000000000000000000000815260040161081c90611de9565b60405180910390fd5b6001816002015f6101000a81548160ff021916908315150217905550818160020160016101000a81548160ff021916908315150217905550827f4927fe38919783250023d27e65a3e56b6b5c3e49364e51674a41ef08d62460d98360405161088d91906113e9565b60405180910390a2505050565b6108a2610e38565b5f60025f8381526020019081526020015f209050806002015f9054906101000a900460ff16610906576040517f08c379a00000000000000000000000000000000000000000000000000000000081526004016108fd90611e51565b60405180910390fd5b60045f8381526020019081526020015f205f3373ffffffffffffffffffffffffffffffffffffffff1673ffffffffffffffffffffffffffffffffffffffff1681526020019081526020015f205f9054906101000a900460ff161561099f576040517f08c379a000000000000000000000000000000000000000000000000000000000815260040161099690611eb9565b60405180910390fd5b5f8160020160019054906101000a900460ff1690505f60035f8581526020019081526020015f205f3373ffffffffffffffffffffffffffffffffffffffff1673ffffffffffffffffffffffffffffffffffffffff1681526020019081526020015f205f831515151581526020019081526020015f205490505f8111610a59576040517f08c379a0000000000000000000000000000000000000000000000000000000008152600401610a5090611f21565b60405180910390fd5b5f82610a69578360040154610a6f565b83600301545b90505f81856005015484610a839190611f3f565b610a8d9190611fad565b9050600160045f8881526020019081526020015f205f3373ffffffffffffffffffffffffffffffffffffffff1673ffffffffffffffffffffffffffffffffffffffff1681526020019081526020015f205f6101000a81548160ff021916908315150217905550846007015f9054906101000a900473ffffffffffffffffffffffffffffffffffffffff1673ffffffffffffffffffffffffffffffffffffffff1663a9059cbb33836040518363ffffffff1660e01b8152600401610b51929190611fdd565b6020604051808303815f875af1158015610b6d573d5f803e3d5ffd5b505050506040513d601f19601f82011682018060405250810190610b919190611922565b503373ffffffffffffffffffffffffffffffffffffffff16867f5380cf6fe903b40c6d5a9e0dfbca2f3a423f0a21520b4d5947ed5169bdba946d83604051610bd9919061112a565b60405180910390a35050505050610bee610e5a565b50565b6003602052825f5260405f20602052815f5260405f20602052805f5260405f205f9250925050505481565b610c24610e74565b610c2d5f610efb565b565b60055f9054906101000a900473ffffffffffffffffffffffffffffffffffffffff1681565b6004602052815f5260405f20602052805f5260405f205f915091509054906101000a900460ff1681565b5f805f9054906101000a900473ffffffffffffffffffffffffffffffffffffffff16905090565b6002602052805f5260405f205f91509050805f018054610cc490611ab0565b80601f0160208091040260200160405190810160405280929190818152602001828054610cf090611ab0565b8015610d3b5780601f10610d1257610100808354040283529160200191610d3b565b820191905f5260205f20905b815481529060010190602001808311610d1e57829003601f168201915b505050505090806001015490806002015f9054906101000a900460ff16908060020160019054906101000a900460ff1690806003015490806004015490806005015490806006015490806007015f9054906101000a900473ffffffffffffffffffffffffffffffffffffffff16905089565b5050505050565b610dbc610e74565b5f73ffffffffffffffffffffffffffffffffffffffff168173ffffffffffffffffffffffffffffffffffffffff1603610e2c575f6040517f1e4fbdf7000000000000000000000000000000000000000000000000000000008152600401610e239190611411565b60405180910390fd5b610e3581610efb565b50565b610e40610fbc565b6002610e52610e4d610ffd565b611026565b5f0181905550565b6001610e6c610e67610ffd565b611026565b5f0181905550565b610e7c61102f565b73ffffffffffffffffffffffffffffffffffffffff16610e9a610c7e565b73ffffffffffffffffffffffffffffffffffffffff1614610ef957610ebd61102f565b6040517f118cdaa7000000000000000000000000000000000000000000000000000000008152600401610ef09190611411565b60405180910390fd5b565b5f805f9054906101000a900473ffffffffffffffffffffffffffffffffffffffff169050815f806101000a81548173ffffffffffffffffffffffffffffffffffffffff021916908373ffffffffffffffffffffffffffffffffffffffff1602179055508173ffffffffffffffffffffffffffffffffffffffff168173ffffffffffffffffffffffffffffffffffffffff167f8be0079c531659141344cd1fd0a4f28419497f9722a3daafe3b4186f6b6457e060405160405180910390a35050565b610fc4611036565b15610ffb576040517f3ee5aeb500000000000000000000000000000000000000000000000000000000815260040160405180910390fd5b565b5f7f9b779b17422d0df92223018b32b4d1fa46e071723d6817e2486d003becc55f005f1b905090565b5f819050919050565b5f33905090565b5f6002611049611044610ffd565b611026565b5f015414905090565b5f604051905090565b5f80fd5b5f80fd5b5f819050919050565b61107581611063565b811461107f575f80fd5b50565b5f813590506110908161106c565b92915050565b5f8115159050919050565b6110aa81611096565b81146110b4575f80fd5b50565b5f813590506110c5816110a1565b92915050565b5f805f606084860312156110e2576110e161105b565b5b5f6110ef86828701611082565b9350506020611100868287016110b7565b925050604061111186828701611082565b9150509250925092565b61112481611063565b82525050565b5f60208201905061113d5f83018461111b565b92915050565b5f602082840312156111585761115761105b565b5b5f61116584828501611082565b91505092915050565b5f80fd5b5f80fd5b5f80fd5b5f8083601f84011261118f5761118e61116e565b5b8235905067ffffffffffffffff8111156111ac576111ab611172565b5b6020830191508360018202830111156111c8576111c7611176565b5b9250929050565b5f73ffffffffffffffffffffffffffffffffffffffff82169050919050565b5f6111f8826111cf565b9050919050565b611208816111ee565b8114611212575f80fd5b50565b5f81359050611223816111ff565b92915050565b5f805f80606085870312156112415761124061105b565b5b5f85013567ffffffffffffffff81111561125e5761125d61105f565b5b61126a8782880161117a565b9450945050602061127d87828801611082565b925050604061128e87828801611215565b91505092959194509250565b5f80604083850312156112b0576112af61105b565b5b5f6112bd85828601611082565b92505060206112ce858286016110b7565b9150509250929050565b5f805f606084860312156112ef576112ee61105b565b5b5f6112fc86828701611082565b935050602061130d86828701611215565b925050604061131e868287016110b7565b9150509250925092565b5f819050919050565b5f61134b611346611341846111cf565b611328565b6111cf565b9050919050565b5f61135c82611331565b9050919050565b5f61136d82611352565b9050919050565b61137d81611363565b82525050565b5f6020820190506113965f830184611374565b92915050565b5f80604083850312156113b2576113b161105b565b5b5f6113bf85828601611082565b92505060206113d085828601611215565b9150509250929050565b6113e381611096565b82525050565b5f6020820190506113fc5f8301846113da565b92915050565b61140b816111ee565b82525050565b5f6020820190506114245f830184611402565b92915050565b5f81519050919050565b5f82825260208201905092915050565b5f5b83811015611461578082015181840152602081019050611446565b5f8484015250505050565b5f601f19601f8301169050919050565b5f6114868261142a565b6114908185611434565b93506114a0818560208601611444565b6114a98161146c565b840191505092915050565b5f819050919050565b6114c6816114b4565b82525050565b5f610120820190508181035f8301526114e5818c61147c565b90506114f4602083018b6114bd565b611501604083018a6113da565b61150e60608301896113da565b61151b608083018861111b565b61152860a083018761111b565b61153560c083018661111b565b61154260e083018561111b565b611550610100830184611402565b9a9950505050505050505050565b611567816114b4565b8114611571575f80fd5b50565b5f813590506115828161155e565b92915050565b5f80fd5b7f4e487b71000000000000000000000000000000000000000000000000000000005f52604160045260245ffd5b6115c28261146c565b810181811067ffffffffffffffff821117156115e1576115e061158c565b5b80604052505050565b5f6115f3611052565b90506115ff82826115b9565b919050565b5f67ffffffffffffffff82111561161e5761161d61158c565b5b6116278261146c565b9050602081019050919050565b828183375f83830152505050565b5f61165461164f84611604565b6115ea565b9050828152602081018484840111156116705761166f611588565b5b61167b848285611634565b509392505050565b5f82601f8301126116975761169661116e565b5b81356116a7848260208601611642565b91505092915050565b5f819050919050565b6116c2816116b0565b81146116cc575f80fd5b50565b5f813590506116dd816116b9565b92915050565b5f805f805f60a086880312156116fc576116fb61105b565b5b5f61170988828901611082565b955050602061171a88828901611574565b945050604061172b88828901611082565b935050606086013567ffffffffffffffff81111561174c5761174b61105f565b5b61175888828901611683565b9250506080611769888289016116cf565b9150509295509295909350565b5f6020828403121561178b5761178a61105b565b5b5f61179884828501611215565b91505092915050565b7f42657474696e6720636c6f7365640000000000000000000000000000000000005f82015250565b5f6117d5600e83611434565b91506117e0826117a1565b602082019050919050565b5f6020820190508181035f830152611802816117c9565b9050919050565b7f4d61726b6574207265736f6c76656400000000000000000000000000000000005f82015250565b5f61183d600f83611434565b915061184882611809565b602082019050919050565b5f6020820190508181035f83015261186a81611831565b9050919050565b7f416d6f756e74206d757374206265203e203000000000000000000000000000005f82015250565b5f6118a5601283611434565b91506118b082611871565b602082019050919050565b5f6020820190508181035f8301526118d281611899565b9050919050565b5f6060820190506118ec5f830186611402565b6118f96020830185611402565b611906604083018461111b565b949350505050565b5f8151905061191c816110a1565b92915050565b5f602082840312156119375761193661105b565b5b5f6119448482850161190e565b91505092915050565b7f4e487b71000000000000000000000000000000000000000000000000000000005f52601160045260245ffd5b5f61198482611063565b915061198f83611063565b92508282019050808211156119a7576119a661194d565b5b92915050565b5f6040820190506119c05f8301856113da565b6119cd602083018461111b565b9392505050565b7f45787069726174696f6e206d75737420626520667574757265000000000000005f82015250565b5f611a08601983611434565b9150611a13826119d4565b602082019050919050565b5f6020820190508181035f830152611a35816119fc565b9050919050565b5f611a4682611063565b91507fffffffffffffffffffffffffffffffffffffffffffffffffffffffffffffffff8203611a7857611a7761194d565b5b600182019050919050565b7f4e487b71000000000000000000000000000000000000000000000000000000005f52602260045260245ffd5b5f6002820490506001821680611ac757607f821691505b602082108103611ada57611ad9611a83565b5b50919050565b5f819050815f5260205f209050919050565b5f6020601f8301049050919050565b5f82821b905092915050565b5f60088302611b3c7fffffffffffffffffffffffffffffffffffffffffffffffffffffffffffffffff82611b01565b611b468683611b01565b95508019841693508086168417925050509392505050565b5f611b78611b73611b6e84611063565b611328565b611063565b9050919050565b5f819050919050565b611b9183611b5e565b611ba5611b9d82611b7f565b848454611b0d565b825550505050565b5f90565b611bb9611bad565b611bc4818484611b88565b505050565b5b81811015611be757611bdc5f82611bb1565b600181019050611bca565b5050565b601f821115611c2c57611bfd81611ae0565b611c0684611af2565b81016020851015611c15578190505b611c29611c2185611af2565b830182611bc9565b50505b505050565b5f82821c905092915050565b5f611c4c5f1984600802611c31565b1980831691505092915050565b5f611c648383611c3d565b9150826002028217905092915050565b611c7d8261142a565b67ffffffffffffffff811115611c9657611c9561158c565b5b611ca08254611ab0565b611cab828285611beb565b5f60209050601f831160018114611cdc575f8415611cca578287015190505b611cd48582611c59565b865550611d3b565b601f198416611cea86611ae0565b5f5b82811015611d1157848901518255600182019150602085019450602081019050611cec565b86831015611d2e5784890151611d2a601f891682611c3d565b8355505b6001600288020188555050505b505050505050565b5f611d4e8385611434565b9350611d5b838584611634565b611d648361146c565b840190509392505050565b5f6040820190508181035f830152611d88818587611d43565b9050611d97602083018461111b565b949350505050565b7f416c7265616479207265736f6c766564000000000000000000000000000000005f82015250565b5f611dd3601083611434565b9150611dde82611d9f565b602082019050919050565b5f6020820190508181035f830152611e0081611dc7565b9050919050565b7f4e6f74207265736f6c76656420796574000000000000000000000000000000005f82015250565b5f611e3b601083611434565b9150611e4682611e07565b602082019050919050565b5f6020820190508181035f830152611e6881611e2f565b9050919050565b7f416c726561647920636c61696d656400000000000000000000000000000000005f82015250565b5f611ea3600f83611434565b9150611eae82611e6f565b602082019050919050565b5f6020820190508181035f830152611ed081611e97565b9050919050565b7f4e6f2077696e6e696e67206265740000000000000000000000000000000000005f82015250565b5f611f0b600e83611434565b9150611f1682611ed7565b602082019050919050565b5f6020820190508181035f830152611f3881611eff565b9050919050565b5f611f4982611063565b9150611f5483611063565b9250828202611f6281611063565b91508282048414831517611f7957611f7861194d565b5b5092915050565b7f4e487b71000000000000000000000000000000000000000000000000000000005f52601260045260245ffd5b5f611fb782611063565b9150611fc283611063565b925082611fd257611fd1611f80565b5b828204905092915050565b5f604082019050611ff05f830185611402565b611ffd602083018461111b565b939250505056fea2646970667358221220d82d2374bf485a23d494f200f79b0db8dcf09bf2a90b69becb24797ef49398c664736f6c63430008140033","linkReferences":{}},"methodIdentifiers":{"claimWinnings(uint256)":"677bd9ff","createMarket(string,uint256,address)":"576cf9d0","hasClaimed(uint256,address)":"873f6f9e","markets(uint256)":"b1283e77","nextMarketId()":"406ef2ef","oracle()":"7dc0d1d0","owner()":"8da5cb5b","placeBet(uint256,bool,uint256)":"1a38cac6","priceSettled(uint256,bytes32,uint256,bytes,int256)":"be5192f5","renounceOwnership()":"715018a6","requestResolution(uint256)":"416a4f19","resolveMarket(uint256,bool)":"57bde446","transferOwnership(address)":"f2fde38b","userBets(uint256,address,bool)":"6d19ee7b"},"id":21}